:100000002BC0E8C244C043C042C041C040C03FC052
:100010003EC03DC03CC03BC03AC039C038C037C00C
:1000200036C035C034C04A2F5A0D000075387232C0
:100030006B347436000000007C2A7B2D792B6C37E2
:100040007D39733569317A337030712E75117212C2
:100050006B1374140000000011241FBECFE5D4E020
:10006000DEBFCDBF10E0A0E6B0E0EAE3F7E002C0FB
:1000700005900D92A236B107D9F720E0A2E6B0E0D4
:1000800001C01D92A037B207E1F738D354C3B8CFEF
:10009000E0916400E150FF0BE959FF4F808130E0AF
:1000A00020E0F9012F5F3F4FD901A959BF4F9C9123
:1000B000E959FF4F90832830310599F790916400FA
:1000C000915090936400089510926F0085B78460FA
:1000D00085BF8BB780648BBF929A0895CF93DF93CF
:1000E0000F92CDB7DEB7898380916400883088F4A1
:1000F000E0916400F0E08981E959FF4F80838091AD
:1001000064008F5F8093640081E00F90DF91CF9156
:10011000089580E00F90DF91CF9108958091640061
:100120008111B6CF80E0089506C0EFE1FEE431977B
:10013000F1F700C00000209162003091630026FDBD
:10014000F4CF92988A9AEFEDF1E03197F1F700C081
:1001500000008D9A8A98929A91E090936000209185
:10016000620030916300206430936300209362004A
:1001700010926600809365000895CF93809162008D
:1001800090916300C4E084FFC0E080916200909190
:10019000630083FDC260809162009091630085FDE1
:1001A000C1608DEEC1DF8C2FCF91BECFAC01FC01C1
:1001B0008491882389F084916817B1F090E003C09E
:1001C000E491E61751F09E5F292F30E0FA01E20F2B
:1001D000F31F84918111F4CF08952F5F3F4F240FB7
:1001E000351FF9018491089521E030E0F8CFCF92D6
:1001F000DF92EF92FF920F931F93CF93DF93809143
:100200006400882309F45DC008E310E08CE2C82E86
:1002100080E0D82E96E3E92E90E0F92EC6E2D0E0F9
:1002200037DF982F882309F44CC09A3A09F453C059
:10023000903ED1F1903F09F47AC040916200509114
:1002400063009A012227317050FF4FC02091620055
:10025000309163003E7F30936300209362002091D1
:100260006200309163002F77309363002093620027
:10027000923109F466C0993509F463C0943109F4E8
:10028000AFC0913109F4D4C0973721F0983511F0FF
:100290009E3799F480916200909163009D7F9093C6
:1002A00063008093620009C08091620090916300B6
:1002B0008068909363008093620080916400811154
:1002C000AFCF80E0DF91CF911F910F91FF90EF9022
:1002D000DF90CF90089580916200909163009460C8
:1002E0009093630080936200E8CF60916200709108
:1002F0006300AB014078552767FF2DC04091620035
:10030000509163004F7750936300409362009431A3
:1003100009F45CC0913109F06DC080916200909148
:10032000630084609093630080936200C6CF8091E5
:1003300062009091630091609093630080936200EB
:10034000BCCF80916200909163008E7F9093630098
:1003500080936200B2CF923179F1993569F194318D
:10036000A9F19131D1F2973709F4C0C0983509F459
:10037000CFC09E3709F066C02091620030916300C3
:1003800031FD60C0809162009091630085FF07C1DC
:1003900080916200909163008F7D909363008093C1
:1003A000620080916200909163009260909363007C
:1003B00080936200E2DE81CF8091620090916300C1
:1003C0008160909363008093620077CF8091620098
:1003D00090916300826090936300809362006DCF80
:1003E00080916200909163008D7F90936300809371
:1003F000620063CFFE018491882309F45ECF84916B
:10040000981771F080E08E5F282F30E0F901EA5DE7
:10041000FF4F4491442309F450CFE491E913F3CF03
:10042000F901E95DFF4F8491882309F446CF4ACF53
:1004300080916200909163008B7F90936300809322
:1004400062003BCF209162003091630020FD72C0BA
:10045000209162003091630023FF17C0F601849160
:10046000882399F08491981709F483C080E004C030
:10047000E491E91709F47FC08E5F282F30E0F9017D
:10048000E45DFF4F64916111F3CFF80184918823FB
:1004900009F413CF8491891771F080E08E5F482FA3
:1004A00050E0FA01E85CFF4F2491222309F405CFC4
:1004B000E491E913F3CFCA01875C9F4FFC0184915B
:1004C000882309F4FACE209162003091630020FF66
:1004D0006CC0209162003091630024FD66C09FE9EA
:1004E000980F9A3108F0EECE8052ECCE2091620047
:1004F0003091630031FDA6CF80916200909163003E
:1005000083FF41C08091620090916300877F45CF57
:10051000209162003091630031FD94CF80916200A0
:100520009091630084FF35C08091620090916300D8
:100530008F7E33CFF7018491882309F489CF84918A
:10054000981709F43FC080E08E5F282F30E0F90152
:10055000EA5CFF4F6491662309F47ACFE491E913D2
:10056000F3CF295C3F4FF9018491882309F470CFC0
:10057000A9CE30E020E0235D3F4FF901849188232C
:1005800009F483CF9FCE80916200909163008860D0
:1005900004CF80916200909163008061FECE8091D3
:1005A0006200909163008062F8CE209162003091E9
:1005B000630024FF87CE209162003091630020FD0C
:1005C00081CE8DCF30E020E0CCCF80916200909141
:1005D000630008950F920FB60F921F9211242F936C
:1005E0003F934F935F938F939F93EF93FF938091EC
:1005F00062009091630086FF25C080916000893081
:1006000009F450C0809160008A3009F451C0809193
:1006100060008B3009F44EC080916500209160002D
:1006200090E02150330B022E02C0959587950A94D5
:10063000E2F780FF3BC08D98809166008F5F8093CA
:1006400066001EC0809160008823B1F08091600038
:100650008A3090F4859B14C04091600080916500C1
:100660004250550B21E030E001C0220F4A95EAF7D5
:10067000822B8093650004C0809160008B3041F133
:10068000809160008F5F80936000FF91EF919F9158
:100690008F915F914F913F912F911F900F900FBEBF
:1006A0000F9018958091660080FF02C08D9AE8CF68
:1006B0008D98E6CF109265001092600080916200E4
:1006C000909163008F7B9093630080936200D8CFFA
:1006D0009091650080916400883058F4E091640046
:1006E000F0E0E959FF4F9083809164008F5F809321
:1006F00064001092650010926000C2CFE5DC87B301
:100700008F6187BB84B38F6384BB81B3836081BBFC
:1007100078946DDD8823E9F385BB86FF07C0909A46
:1007200087FD07C0919851DF88BBF3CF909887FF72
:0A073000F9CF919AF8CFF894FFCFAB
:02073A000100BC
:00000001FF
